{
  "contractName": "Auction",
  "abi": [
    {
      "constant": true,
      "inputs": [],
      "name": "name",
      "outputs": [
        {
          "name": "",
          "type": "bytes32"
        }
      ],
      "payable": false,
      "stateMutability": "view",
      "type": "function"
    },
    {
      "constant": true,
      "inputs": [],
      "name": "beneficiary",
      "outputs": [
        {
          "name": "",
          "type": "address"
        }
      ],
      "payable": false,
      "stateMutability": "view",
      "type": "function"
    },
    {
      "constant": true,
      "inputs": [],
      "name": "firstPrice",
      "outputs": [
        {
          "name": "",
          "type": "uint256"
        }
      ],
      "payable": false,
      "stateMutability": "view",
      "type": "function"
    },
    {
      "constant": true,
      "inputs": [
        {
          "name": "",
          "type": "address"
        }
      ],
      "name": "assetsInfo",
      "outputs": [
        {
          "name": "",
          "type": "uint256"
        }
      ],
      "payable": false,
      "stateMutability": "view",
      "type": "function"
    },
    {
      "constant": true,
      "inputs": [],
      "name": "endingTime",
      "outputs": [
        {
          "name": "",
          "type": "uint256"
        }
      ],
      "payable": false,
      "stateMutability": "view",
      "type": "function"
    },
    {
      "constant": true,
      "inputs": [],
      "name": "totalGains",
      "outputs": [
        {
          "name": "",
          "type": "uint256"
        }
      ],
      "payable": false,
      "stateMutability": "view",
      "type": "function"
    },
    {
      "constant": true,
      "inputs": [],
      "name": "units",
      "outputs": [
        {
          "name": "",
          "type": "uint256"
        }
      ],
      "payable": false,
      "stateMutability": "view",
      "type": "function"
    },
    {
      "constant": true,
      "inputs": [],
      "name": "currentPrice",
      "outputs": [
        {
          "name": "",
          "type": "uint256"
        }
      ],
      "payable": false,
      "stateMutability": "view",
      "type": "function"
    },
    {
      "constant": true,
      "inputs": [
        {
          "name": "",
          "type": "uint256"
        }
      ],
      "name": "winners",
      "outputs": [
        {
          "name": "",
          "type": "address"
        }
      ],
      "payable": false,
      "stateMutability": "view",
      "type": "function"
    },
    {
      "constant": true,
      "inputs": [],
      "name": "reversePrice",
      "outputs": [
        {
          "name": "",
          "type": "uint256"
        }
      ],
      "payable": false,
      "stateMutability": "view",
      "type": "function"
    },
    {
      "constant": true,
      "inputs": [
        {
          "name": "",
          "type": "address"
        }
      ],
      "name": "winnerInfo",
      "outputs": [
        {
          "name": "units",
          "type": "uint256"
        },
        {
          "name": "bid",
          "type": "uint256"
        },
        {
          "name": "change",
          "type": "uint256"
        }
      ],
      "payable": false,
      "stateMutability": "view",
      "type": "function"
    },
    {
      "inputs": [
        {
          "name": "_name",
          "type": "bytes32"
        },
        {
          "name": "_biddingTime",
          "type": "uint256"
        },
        {
          "name": "_units",
          "type": "uint256"
        },
        {
          "name": "_firstPrice",
          "type": "uint256"
        },
        {
          "name": "_reversePrice",
          "type": "uint256"
        }
      ],
      "payable": false,
      "stateMutability": "nonpayable",
      "type": "constructor"
    },
    {
      "payable": true,
      "stateMutability": "payable",
      "type": "fallback"
    },
    {
      "anonymous": false,
      "inputs": [
        {
          "indexed": true,
          "name": "value",
          "type": "uint256"
        }
      ],
      "name": "TestValue",
      "type": "event"
    },
    {
      "anonymous": false,
      "inputs": [
        {
          "indexed": true,
          "name": "add",
          "type": "address"
        }
      ],
      "name": "TestAddress",
      "type": "event"
    },
    {
      "anonymous": false,
      "inputs": [
        {
          "indexed": false,
          "name": "amount",
          "type": "uint256"
        }
      ],
      "name": "HighestBidDecreased",
      "type": "event"
    },
    {
      "anonymous": false,
      "inputs": [
        {
          "indexed": false,
          "name": "winner",
          "type": "address"
        }
      ],
      "name": "UnitsDecreased",
      "type": "event"
    },
    {
      "anonymous": false,
      "inputs": [
        {
          "indexed": false,
          "name": "winners",
          "type": "address[]"
        }
      ],
      "name": "AuctionEnded",
      "type": "event"
    },
    {
      "constant": true,
      "inputs": [],
      "name": "getVariables",
      "outputs": [
        {
          "name": "",
          "type": "uint256"
        },
        {
          "name": "",
          "type": "uint256"
        },
        {
          "name": "",
          "type": "uint256"
        },
        {
          "name": "",
          "type": "uint256"
        },
        {
          "name": "",
          "type": "uint256"
        },
        {
          "name": "",
          "type": "uint256"
        },
        {
          "name": "",
          "type": "uint256"
        },
        {
          "name": "",
          "type": "bytes32"
        }
      ],
      "payable": false,
      "stateMutability": "view",
      "type": "function"
    },
    {
      "constant": true,
      "inputs": [
        {
          "name": "add",
          "type": "address"
        }
      ],
      "name": "getWinnerInfo",
      "outputs": [
        {
          "components": [
            {
              "name": "units",
              "type": "uint256"
            },
            {
              "name": "bid",
              "type": "uint256"
            },
            {
              "name": "change",
              "type": "uint256"
            }
          ],
          "name": "",
          "type": "tuple"
        }
      ],
      "payable": false,
      "stateMutability": "view",
      "type": "function"
    },
    {
      "constant": true,
      "inputs": [
        {
          "name": "add",
          "type": "address"
        }
      ],
      "name": "getAssetsInfo",
      "outputs": [
        {
          "name": "",
          "type": "uint256"
        }
      ],
      "payable": false,
      "stateMutability": "view",
      "type": "function"
    },
    {
      "constant": true,
      "inputs": [],
      "name": "getBeneficiary",
      "outputs": [
        {
          "name": "",
          "type": "address"
        }
      ],
      "payable": false,
      "stateMutability": "view",
      "type": "function"
    },
    {
      "constant": false,
      "inputs": [
        {
          "name": "numberOfUnits",
          "type": "uint256"
        }
      ],
      "name": "bid",
      "outputs": [],
      "payable": true,
      "stateMutability": "payable",
      "type": "function"
    },
    {
      "constant": false,
      "inputs": [
        {
          "name": "price",
          "type": "uint256"
        }
      ],
      "name": "lower",
      "outputs": [],
      "payable": false,
      "stateMutability": "nonpayable",
      "type": "function"
    },
    {
      "constant": false,
      "inputs": [],
      "name": "withdraw",
      "outputs": [
        {
          "name": "",
          "type": "bool"
        }
      ],
      "payable": false,
      "stateMutability": "nonpayable",
      "type": "function"
    },
    {
      "constant": false,
      "inputs": [],
      "name": "auctionEnd",
      "outputs": [],
      "payable": false,
      "stateMutability": "nonpayable",
      "type": "function"
    }
  ],
  "bytecode": "0x6060604052341561000f57600080fd5b60405160a08061108e8339810160405280805190602001909190805190602001909190805190602001909190805190602001909190805190602001909190505060008411151561005e57600080fd5b808211151561006c57600080fd5b60008311151561007b57600080fd5b336000806101000a81548173ffffffffffffffffffffffffffffffffffffffff021916908373ffffffffffffffffffffffffffffffffffffffff160217905550846002816000191690555083420160068190555082600a60003373ffffffffffffffffffffffffffffffffffffffff1673ffffffffffffffffffffffffffffffffffffffff16815260200190815260200160002081905550826003819055508160048190555081600781905550806005819055505050505050610f4b806101436000396000f300606060405260043610610107576000357c0100000000000000000000000000000000000000000000000000000000900463ffffffff16806306fdde031461010957806309ad59ba1461013a5780630b133bd91461015d5780632a24f46c146101aa57806338af3eed146101bf57806339a3da4a146102145780633ccfd60b1461023d578063454a2ab31461026a578063565a2e2c1461028257806359937048146102d75780636c47a6c3146103245780637ffb85771461034d57806394aef02214610376578063976a8435146103d85780639d1b464a14610401578063a2fb11751461042a578063d5fdf00f1461048d578063d9618d80146104b6578063f4f4a4ea14610503575b005b341561011457600080fd5b61011c61055e565b60405180826000191660001916815260200191505060405180910390f35b341561014557600080fd5b61015b6004808035906020019091905050610564565b005b341561016857600080fd5b610194600480803573ffffffffffffffffffffffffffffffffffffffff16906020019091905050610681565b6040518082815260200191505060405180910390f35b34156101b557600080fd5b6101bd6106ca565b005b34156101ca57600080fd5b6101d26109c4565b604051808273ffffffffffffffffffffffffffffffffffffffff1673ffffffffffffffffffffffffffffffffffffffff16815260200191505060405180910390f35b341561021f57600080fd5b6102276109e9565b6040518082815260200191505060405180910390f35b341561024857600080fd5b6102506109ef565b604051808215151515815260200191505060405180910390f35b6102806004808035906020019091905050610b1d565b005b341561028d57600080fd5b610295610d30565b604051808273ffffffffffffffffffffffffffffffffffffffff1673ffffffffffffffffffffffffffffffffffffffff16815260200191505060405180910390f35b34156102e257600080fd5b61030e600480803573ffffffffffffffffffffffffffffffffffffffff16906020019091905050610d59565b6040518082815260200191505060405180910390f35b341561032f57600080fd5b610337610d71565b6040518082815260200191505060405180910390f35b341561035857600080fd5b610360610d77565b6040518082815260200191505060405180910390f35b341561038157600080fd5b610389610d7d565b6040518089815260200188815260200187815260200186815260200185815260200184815260200183815260200182600019166000191681526020019850505050505050505060405180910390f35b34156103e357600080fd5b6103eb610db9565b6040518082815260200191505060405180910390f35b341561040c57600080fd5b610414610dbf565b6040518082815260200191505060405180910390f35b341561043557600080fd5b61044b6004808035906020019091905050610dc5565b604051808273ffffffffffffffffffffffffffffffffffffffff1673ffffffffffffffffffffffffffffffffffffffff16815260200191505060405180910390f35b341561049857600080fd5b6104a0610e04565b6040518082815260200191505060405180910390f35b34156104c157600080fd5b6104ed600480803573ffffffffffffffffffffffffffffffffffffffff16906020019091905050610e0a565b6040518082815260200191505060405180910390f35b341561050e57600080fd5b61053a600480803573ffffffffffffffffffffffffffffffffffffffff16906020019091905050610e82565b60405180848152602001838152602001828152602001935050505060405180910390f35b60025481565b600654804210151561057557600080fd5b3373ffffffffffffffffffffffffffffffffffffffff167fb447d1612fbff6826143b595c1b7183615a9e2dd200be47f291301a8d92e468560405160405180910390a26000809054906101000a900473ffffffffffffffffffffffffffffffffffffffff1673ffffffffffffffffffffffffffffffffffffffff167fb447d1612fbff6826143b595c1b7183615a9e2dd200be47f291301a8d92e468560405160405180910390a26007548210151561062c57600080fd5b600060035411151561063d57600080fd5b816007819055507f3f8ea1ce6390acade618aa4ce7b35722d2b334cfaca368156479ca7d0c9dadce6007546040518082815260200191505060405180910390a15050565b6000600a60008373ffffffffffffffffffffffffffffffffffffffff1673ffffffffffffffffffffffffffffffffffffffff168152602001908152602001600020549050919050565b60008060065480421115156106de57600080fd5b600960009054906101000a900460ff161515156106fa57600080fd5b6001600960006101000a81548160ff021916908315150217905550600092505b6001805490508310156108b05760018381548110151561073657fe5b906000526020600020900160009054906101000a900473ffffffffffffffffffffffffffffffffffffffff169150600b60008373ffffffffffffffffffffffffffffffffffffffff1673ffffffffffffffffffffffffffffffffffffffff16815260200190815260200160002060000154600a60008473ffffffffffffffffffffffffffffffffffffffff1673ffffffffffffffffffffffffffffffffffffffff16815260200190815260200160002060008282540192505081905550600b60008373ffffffffffffffffffffffffffffffffffffffff1673ffffffffffffffffffffffffffffffffffffffff16815260200190815260200160002060000154600a60008060009054906101000a900473ffffffffffffffffffffffffffffffffffffffff1673ffffffffffffffffffffffffffffffffffffffff1673ffffffffffffffffffffffffffffffffffffffff16815260200190815260200160002060008282540392505081905550828060010193505061071a565b6000809054906101000a900473ffffffffffffffffffffffffffffffffffffffff1673ffffffffffffffffffffffffffffffffffffffff166108fc6008549081150290604051600060405180830381858888f19350505050151561091357600080fd5b7f244782a2d7ea6d9ebcfd311a40258aa39106c8ab12a7267458af1dd54806c1886001604051808060200182810382528381815481526020019150805480156109b157602002820191906000526020600020905b8160009054906101000a900473ffffffffffffffffffffffffffffffffffffffff1673ffffffffffffffffffffffffffffffffffffffff1681526020019060010190808311610967575b50509250505060405180910390a1505050565b6000809054906101000a900473ffffffffffffffffffffffffffffffffffffffff1681565b60045481565b600080600b60003373ffffffffffffffffffffffffffffffffffffffff1673ffffffffffffffffffffffffffffffffffffffff1681526020019081526020016000206002015490506000811115610b14576000600b60003373ffffffffffffffffffffffffffffffffffffffff1673ffffffffffffffffffffffffffffffffffffffff168152602001908152602001600020600201819055503373ffffffffffffffffffffffffffffffffffffffff166108fc829081150290604051600060405180830381858888f193505050501515610b135780600b60003373ffffffffffffffffffffffffffffffffffffffff1673ffffffffffffffffffffffffffffffffffffffff1681526020019081526020016000206002018190555060009150610b19565b5b600191505b5090565b6006548042101515610b2e57600080fd5b8160035410151515610b3f57600080fd5b81600754023410151515610b5257600080fd5b60018054806001018281610b669190610eac565b9160005260206000209001600033909190916101000a81548173ffffffffffffffffffffffffffffffffffffffff021916908373ffffffffffffffffffffffffffffffffffffffff1602179055505081600b60003373ffffffffffffffffffffffffffffffffffffffff1673ffffffffffffffffffffffffffffffffffffffff16815260200190815260200160002060000181905550600754600b60003373ffffffffffffffffffffffffffffffffffffffff1673ffffffffffffffffffffffffffffffffffffffff1681526020019081526020016000206001018190555081600754023403600b60003373ffffffffffffffffffffffffffffffffffffffff1673ffffffffffffffffffffffffffffffffffffffff1681526020019081526020016000206002016000828254019250508190555081600354036003819055508160075402600854016008819055507f5d45f3dd6ca6de26ed7c6542c16b41cd8f09dba3cf1e7006ca3015ceed90e70733604051808273ffffffffffffffffffffffffffffffffffffffff1673ffffffffffffffffffffffffffffffffffffffff16815260200191505060405180910390a160006003541415610d2c57610d2b6106ca565b5b5050565b60008060009054906101000a900473ffffffffffffffffffffffffffffffffffffffff16905090565b600a6020528060005260406000206000915090505481565b60065481565b60085481565b60008060008060008060008042600654600454600554600854600354600754600254975097509750975097509750975097509091929394959697565b60035481565b60075481565b600181815481101515610dd457fe5b90600052602060002090016000915054906101000a900473ffffffffffffffffffffffffffffffffffffffff1681565b60055481565b610e12610ed8565b600b60008373ffffffffffffffffffffffffffffffffffffffff1673ffffffffffffffffffffffffffffffffffffffff1681526020019081526020016000206060604051908101604052908160008201548152602001600182015481526020016002820154815250509050919050565b600b6020528060005260406000206000915090508060000154908060010154908060020154905083565b815481835581811511610ed357818360005260206000209182019101610ed29190610efa565b5b505050565b6060604051908101604052806000815260200160008152602001600081525090565b610f1c91905b80821115610f18576000816000905550600101610f00565b5090565b905600a165627a7a723058203a4ce84f17575d86ae52ea798256203bee5c55c11a7b21f87d8a39e20a270b600029",
  "source": "pragma solidity ^0.4.18;\n\ncontract Auction {\n    address public beneficiary;\n    address[] public winners;\n    bytes32 public name;\n    uint256 public units;\n    uint256 public firstPrice;\n    uint256 public reversePrice;\n    uint256 public endingTime;\n    uint256 public currentPrice; \n    uint256 public totalGains;\n\n    struct WinningInfo {\n        uint256 units;\n        uint256 bid;\n        uint256 change;\n    }\n\n    bool ended;\n    mapping (address => uint256) public assetsInfo;\n    mapping (address => WinningInfo) public winnerInfo;\n\n    event TestValue(uint256 indexed value);\n    event TestAddress(address indexed add);\n\n    modifier onlyBefore(uint _time) {require(now < _time); _;}\n    modifier onlyAfter(uint _time) {require(now > _time); _;}\n\n    // Events that will be fired on changes.\n    event HighestBidDecreased(uint256 amount);\n    event UnitsDecreased(address winner);\n    event AuctionEnded(address[] winners);\n\n    /// Create a simple Dutch Auction\n    function Auction (\n        bytes32 _name,\n        uint256 _biddingTime, \n        uint256 _units, \n        uint256 _firstPrice, \n        uint256 _reversePrice ) \n    public \n    {\n        require(_biddingTime > 0);\n        require(_firstPrice > _reversePrice);\n        require(_units > 0);\n        beneficiary = msg.sender;\n        name = _name;\n        endingTime = now + _biddingTime;\n        assetsInfo[msg.sender] = _units;\n        units = _units;\n        firstPrice = _firstPrice;\n        currentPrice = _firstPrice;\n        reversePrice = _reversePrice;\n    }\n\n    function getVariables () public view returns (uint256, uint256, uint256, uint256, uint256, uint256, uint256, bytes32) {\n        return (now, endingTime, firstPrice, reversePrice, totalGains, units, currentPrice, name);\n    }\n\n    function getWinnerInfo (address add) public view returns (WinningInfo) {\n        return winnerInfo[add];\n    }\n\n    function getAssetsInfo (address add) public view returns (uint256) {\n        return assetsInfo[add];\n    }\n\n    function getBeneficiary() public view returns (address) {\n        return beneficiary;\n    }\n\n    /// Aggree with the current price\n    function bid(uint256 numberOfUnits) public payable onlyBefore(endingTime) {\n        require(units >= numberOfUnits);\n        require(msg.value >= currentPrice * numberOfUnits);\n        winners.push(msg.sender);\n        winnerInfo[msg.sender].units = numberOfUnits;\n        winnerInfo[msg.sender].bid = currentPrice;\n        winnerInfo[msg.sender].change += msg.value - (currentPrice * numberOfUnits);\n        units = units - numberOfUnits;\n        totalGains = totalGains + currentPrice * numberOfUnits;\n        UnitsDecreased(msg.sender);\n        if (units == 0) {\n            auctionEnd();\n        }\n    }\n\n    /// Lower the current price. \n    /// Only beneficiary can call this function\n    function lower(uint256 price) public onlyBefore(endingTime) {\n        TestAddress(msg.sender);\n        TestAddress(beneficiary);\n        // require(msg.sender == beneficiary);\n        require(price < currentPrice);\n        require(units > 0);\n        currentPrice = price;\n        HighestBidDecreased(currentPrice);\n    }\n\n    /// Withdraw a bid that was overbid.\n    function withdraw() public returns (bool) {\n        uint amount = winnerInfo[msg.sender].change;\n        if (amount > 0) {\n            // It is important to set this to zero because the recipient\n            // can call this function again as part of the receiving call\n            // before `send` returns.\n            winnerInfo[msg.sender].change = 0;\n\n            if (!msg.sender.send(amount)) {\n                // No need to call throw here, just reset the amount owing\n                winnerInfo[msg.sender].change = amount;\n                return false;\n            }\n        }\n        return true;\n    }\n\n    /// End the auction and send the bid to the beneficiary\n    function auctionEnd() public onlyAfter(endingTime) {\n        require(!ended);\n        ended = true;\n        for (uint256 i = 0; i < winners.length; i++) {\n            address bidderAddress = winners[i];\n            assetsInfo[bidderAddress] += winnerInfo[bidderAddress].units;\n            assetsInfo[beneficiary] -= winnerInfo[bidderAddress].units;\n        }\n        beneficiary.transfer(totalGains);\n        AuctionEnded(winners);\n    }\n\n    // Fallback function in case someone sends ether to the contract so it doesn't get lost \n    // and to increase the treasury of this contract that will be distributed in each game\n    function() public payable {}\n}\n",
  "sourcePath": "/home/tailongnguyen/Study/Technology Workshops/auction/contracts/Auction.sol",
  "compiler": {
    "name": "solc",
    "version": "0.4.19+commit.c4cbbb05.Emscripten.clang"
  },
  "schemaVersion": "2.0.0",
  "updatedAt": "2018-03-13T03:30:25.326Z"
}